:020000040800F2
:1000000058070020890100086D16000865160008D1
:10001000691600084502000881160008000000006B
:10002000000000000000000000000000751600083D
:10003000E9050008000000007116000879160008A4
:10004000A3010008A3010008A3010008A301000800
:10005000A3010008A3010008A3010008A3010008F0
:10006000A3010008A3010008A3010008A3010008E0
:10007000A3010008A3010008A3010008A3010008D0
:10008000A3010008A3010008A3010008A3010008C0
:10009000A3010008A3010008A3010008A3010008B0
:1000A000A3010008A3010008A3010008A3010008A0
:1000B000A3010008A3010008A3010008A301000890
:1000C000A3010008A3010008A3010008A301000880
:1000D000A3010008A3010008A3010008A301000870
:1000E000A3010008A3010008A301000800F002F822
:1000F00000F03AF80AA090E8000C82448344AAF188
:100100000107DA4501D100F02FF8AFF2090EBAE885
:100110000F0013F0010F18BFFB1A43F0010318473B
:10012000081A0000281A0000103A24BF78C878C1C5
:10013000FAD8520724BF30C830C144BF04680C60ED
:10014000704700000023002400250026103A28BF35
:1001500078C1FBD8520728BF30C148BF0B60704739
:100160001FB51FBD10B510BD00F031F81146FFF7E7
:10017000F7FF01F087FA00F04FF803B4FFF7F2FF42
:1001800003BC00F057F800000948804709480047C1
:10019000FEE7FEE7FEE7FEE7FEE7FEE7FEE7FEE737
:1001A000FEE7FEE704480549054A064B7047000094
:1001B0007D160008ED0000085801002058070020B7
:1001C0005803002058030020704770477047754659
:1001D00000F02CF8AE4605006946534620F00700B3
:1001E000854618B020B5FFF7DDFFBDE820404FF091
:1001F00000064FF000074FF000084FF0000BAC4630
:10020000ACE8C009ACE8C009ACE8C009ACE8C0097A
:1002100021F007018D46704710B50446AFF300800A
:100220002046BDE81040FFF7A8BF00000048704717
:100230001000002001491820ABBEFEE72600020096
:1002400070470000FEE700002DE9F04782B040F65D
:10025000000940F2BC07C4F20109C2F200070646D9
:1002600009F5806407F12808082540462146082240
:100270003346009500F0A6F907F13C0A04255046E4
:10028000494640223346009500F09CF907F11405D9
:100290004FF0000C2846494610223346CDF800C0E6
:1002A00000F090F94FF00C0C3846214620223346DE
:1002B000CDF800C000F086F938460021002200F099
:1002C0000BF928460021002200F006F940460021E3
:1002D000002200F001F950460021002202B0BDE8E2
:1002E000F04700F0F9B80000B0B5082888BFB0BDED
:1002F0000C46DFE800F0051735476583A1B5D3004C
:1003000040F2BC05C2F2000528460121224600F059
:10031000E3F805F114000121224600F0DDF805F1B3
:1003200028005EE040F2BC05C2F20005284602212A
:10033000224600F0D1F805F114000221224600F017
:10034000CBF805F128000221224600F0C5F805F19E
:100350003C0002212246BDE8B04000F0BDB800BF1D
:1003600040F2BC05C2F2000528460021224600F0FA
:10037000B3F805F114000021224600F0ADF805F1B4
:10038000280010E040F2BC05C2F200052846012119
:10039000224600F0A1F805F128000121224600F0D4
:1003A0009BF805F114000021224600F095F805F1B4
:1003B0003C0000212246BDE8B04000F08DB800BFEF
:1003C00040F2BC05C2F2000528460021224600F09A
:1003D00083F805F128000021224600F07DF805F1A0
:1003E00014000121224600F077F805F13C000121BC
:1003F0002246BDE8B04000F06FB800BF40F2BC0537
:10040000C2F2000528460221224600F065F805F1F7
:100410003C000221224600F05FF805F114000121A2
:10042000224600F059F805F1280001212246BDE8D6
:10043000B04000F051B800BF40F2BC05C2F2000568
:1004400028460121224600F047F805F13C00012131
:10045000224600F041F805F11400022112E000BF2D
:1004600040F2BC05C2F2000528460221224600F0F7
:1004700033F805F13C000021224600F02DF805F18B
:1004800014000021224600F027F805F1280002217F
:100490002246BDE8B04000F01FB800BF40F2BC05E6
:1004A000C2F2000528460021224600F015F805F1A9
:1004B0003C000221224600F00FF805F11400022151
:1004C000224600F009F805F1280000212246BDE887
:1004D000B04000F001B80000B0B51546044602294E
:1004E000017019D0012937D000295DD160682189B8
:1004F000002200F0A3F9E068216900684FEAB10129
:10050000C26A032950D8DFE801F00351555900BFF2
:1005100000214163B0BD00BF60682189012200F065
:100520008DF9E068216900684FEAB101C26A0329C8
:100530003AD8C5F16403DBB25A4348F21F53C5F2FF
:10054000EB13A2FB03235A09DFE801F02028240261
:1005500091B20164B0BD00BF60682189002200F043
:100560006DF9E068216900684FEAB101C26A0329A8
:1005700088BFB0BD48F21F536A43C5F2EB13A2FB1C
:1005800003235A09DFE801F0020A060E91B2416323
:10059000B0BD00BF91B2C163B0BD00BF91B2816375
:1005A000B0BD00BF91B20164B0BD00BF0021816346
:1005B000B0BD00BF0021C163B0BD00BF0021016418
:1005C000B0BD000080B5DDF808E09C460346416000
:1005D0000281C0F80CC060467146C3F810E0BDE867
:1005E000804000F0F5BE000070470000B0B5044642
:1005F00000F02AF9054640F20000C2F2000000783F
:10060000611C18BF044400BF00F01EF9401BA0424B
:10061000FAD3B0BD2DE9F04F82B00E68002E00F085
:10062000038141F20042C4F20102042340F2004E71
:10063000904208BF03234FF6FF7CC4F2010E0093E3
:1006400000240123C1F2100C4FF0000A4FF0000902
:1006500049E000BF012704F00C030F229A402BEA67
:10066000020207FA03F34FEA9A051A4346F82520D7
:10067000D1F804B040F20C455FEACB22DEF8082046
:1006800054BF22EA080242EA0802C4F20105CEF889
:1006900008202A685FEA8B2354BF22EA080242EA54
:1006A00008022A605FEA8B33DEF8042054BF22EA96
:1006B000080242EA08025FEACB33CEF80420DEF8F3
:1006C00000204FF0010354BF22EA080242EA080268
:1006D000CEF800200E680AF1010A36FA0AF204F197
:1006E000040400F0A18003FA0AF816EA080FF1D01A
:1006F0004E68664512DC122E56D8DFE806F0350B40
:100700004549555555555555555555555555554DBD
:10071000510000BFD1F80C9046E000BF4FF6FF72C9
:10072000C1F2210296420FDC0022C1F21102964270
:100730001AD00022C1F21202964215D00022C1F254
:100740002102964210D02FE00022C1F222029642EE
:100750000AD00022C1F23102964205D00022C1F235
:100760003202964220D100BF8A684AB1012A14BFE2
:10077000C0F81480C0F810804FF0080914E000BFE2
:100780004FF0040910E000BFCA6802F108090BE04D
:100790004FF0000908E000BFCA6802F1040903E055
:1007A000CA6802F10C0900BF22460646BAF1080FDA
:1007B00024BF203A043637680F25954027EA0505FF
:1007C00009FA02F22A433260CA79D2067FF582AF73
:1007D00041F21803C4F202031A68AEF57E7642F0C5
:1007E00001021A601A6802F001020192019A2AF0CD
:1007F000030256F802B040F60002C4F20102904231
:1008000010D040F60042C4F2010290423FF422AF01
:1008100041F20002C4F20102009F904208BF022789
:1008200019E700BF002716E702B0BDE8F08F00000F
:100830008068084018BF012070470000002A08BFE8
:10084000090401617047000040F25410C2F2000038
:100850000068704740F2000040F25411C2F20000FC
:10086000C2F2000100780A68104408607047000076
:1008700080B542F20000C4F20200016841F01001AC
:100880000160032000F07AF80F2000F005F800F076
:1008900027F8002080BD000070B540F20006C2F2CB
:1008A000000640F208013278C2F200014FF47A7378
:1008B0000968B3FBF2F20446B1FBF2F1084600F01E
:1008C0004FFB0F2C4FF0010508D838B94FF0FF301F
:1008D00021460022002500F025F87460284670BDEE
:1008E00082B041F21800C4F202000168022241F015
:1008F00001010160016801F0010101910199416864
:1009000041F080514160406800F0805000900098B4
:100910000420C4F20100016862F31A61016002B0B0
:100920007047000010B54EF60C5CCEF2000CDCF8FF
:100930000030C3F3022E8EF00704042C28BF0424D9
:10094000BEF103034FF0FF3E0EFA04F438BF00235C
:10095000A14399400EFA03F39A43114300F00F02AA
:1009600000F160430901043A03F56443624400283E
:1009700048BF02F10C03197010BD00004EF60C5177
:10098000CEF200010A684FF6FF031A4060F30A2214
:1009900042F0806040F0FD70086070472DE9F04340
:1009A00081B0002800F0858042F20008C4F20208FD
:1009B0000446D8F800000D4600F0070088420CD22B
:1009C000D8F8000020F007002843C8F80000D8F845
:1009D000000000F00700A8426BD1206841F2040932
:1009E0008107C4F2020917D5410705D5D9F80010CF
:1009F00041F4E061C9F80010010705D5D9F80010ED
:100A000041F46051C9F80010D9F80010A26821F033
:100A1000F0011143C9F80010C00741D1D8F8000017
:100A200000F00700A8420CD9D8F8000020F0070019
:100A30002843C8F80000D8F8000000F00700A842DA
:100A400037D12068410707D5D9F80010E26821F4B2
:100A5000E0611143C9F80010000708D5D9F800007B
:100A6000216920F4605040EAC100C9F80000D9F8BB
:100A7000002002F00C00082841F20020C0F27A00A9
:100A800050D141F61633C2F38341C0F60003595CDE
:100A9000D2033BD440F60010C0F23D00484341E091
:100AA000606802280AD001282AD159F8041C890359
:100AB00008D4012001B0BDE8F08300BF59F8041C40
:100AC0008901F6D5D9F8001021F003010843C9F8CF
:100AD0000000FFF7B9FE064641F28837D9F800005A
:100AE000616800F00C00B0EB810F97D0FFF7ACFE0F
:100AF000801BB842F2D9032001B0BDE8F08300BFEB
:100B000059F8041C8907D4D5DCE700BFD9F80020C8
:100B100041F61433C2F34042C0F600039A5C4843E6
:100B2000B0FBF2F0D9F8001041F6FC22C1F303113A
:100B3000C0F60002515C40F2080220FA01F140F2D6
:100B40000400C2F200000068C2F200021160FFF768
:100B5000A3FE002001B0BDE8F083000040F20800D1
:100B600041F20401C2F20000C4F202010068096807
:100B700041F60C32C1F30221C0F60002515CC840BC
:100B80007047000040F2080041F20401C2F2000088
:100B9000C4F202010068096841F60C32C1F3C221B7
:100BA000C0F60002515CC840704700002DE9F041DA
:100BB00082B0002868D00446007841F20006C007E1
:100BC000C4F2020625D0706800F00C0004281BD087
:100BD000706800F00C00082802D17068C00313D4BC
:100BE0006068002800F06881B0F5A02F00F07C81DB
:100BF000B0F5803F00F07C81306820F480303060B8
:100C0000306820F4802076E13068800301D5606888
:100C1000D0B32078800718D5706810F00C0F07D07B
:100C2000706800F00C0008286ED17068C0036BD4A7
:100C30003068800702D52069012825D130686169B4
:100C400020F0F80040EAC1003060207800071FD48F
:100C50002078400732D4E56995B1706800F00C0047
:100C6000082840F08F80012D0ED07068216A00F4B2
:100C700080328A4208D1616A00F47010884203D140
:100C8000002002B0BDE8F081012002B0BDE8F08193
:100C9000A069002862D00020C4F242200121C0F8DF
:100CA0008014FFF7D1FD0546706A800700F18C8043
:100CB000FFF7CAFD401B0228F6D92AE1F06910F0BF
:100CC000805808D1F06940F08050F061F06900F080
:100CD00080500090009847F20007C4F2000738687F
:100CE000C00529D4386840F480703860FFF7ACFD47
:100CF000054600BF3868C0051ED4FFF7A5FD401BA0
:100D00006428F7D905E100BF2069002840F20000FF
:100D1000C4F2422000F0828001210160FFF794FDBF
:100D2000054600BF306880073FF588AFFFF78CFDB0
:100D3000401B0228F6D9ECE0E068002800F0808033
:100D4000052800F09780012800F09880306A20F094
:100D500001003062306A20F0040092E00020C4F20A
:100D600042200021C0F88014FFF76EFD054600BF49
:100D7000706A80077FF56CAFFFF766FD401B0228A5
:100D8000F6D9C6E00027C4F2422700203866FFF7F4
:100D90005BFD022D05460BD13068800140F1BE801D
:100DA000FFF752FD401B02284FF00300F4D968E71B
:100DB000306880017FF564AFFFF746FD401B0228D5
:100DC0004FF00300F4D95CE740F20800C2F20000E3
:100DD000006844F6D351C1F26201A0FB0101480A48
:100DE000019000BF00BF0198411E002801913FF40F
:100DF0002FAF00BF0198411E002801913FF428AF9A
:100E000000BF0198411E002801913FF421AF00BFAF
:100E10000198411E00280191E4D119E700210160E9
:100E2000FFF712FD054600BF306880077FF50DAF64
:100E3000FFF70AFD401B02284FF00300F4D920E71A
:100E4000306A20F001003062306A20F00400306225
:100E5000FFF7FAFC054641F2883700BF306A800789
:100E600020D5FFF7F1FC401BB8424FF00300F5D945
:100E700007E700BF306A40F004003062306A40F09B
:100E800001003062FFF7E0FC054641F2883700BF01
:100E9000306A800706D4FFF7D7FC401BB842F7D969
:100EA00037E000BFB8F1000F7FF4D5AEF06920F055
:100EB0008050F061CFE600BF306820F480303060B1
:100EC000306820F480203060FFF7BEFC054600BF8C
:100ED000306880037FF59DAEFFF7B6FC401B6428A9
:100EE0004FF00300F4D9CCE6306840F48020306045
:100EF000306840F480303060FFF7A6FC054600BF44
:100F0000306880033FF585AEFFF79EFC401B6428E8
:100F1000F6D9032002B0BDE8F08100BF206AB0F529
:100F2000803F05D17168A26821F4003111437160DE
:100F30007168626A21F474111143084370600120E2
:100F40003866FFF781FC0446306880013FF598AEB3
:100F5000FFF77AFC001B02284FF00300F4D990E65B
:100F6000411E0020B0EB116F1CBF012070474EF2F4
:100F70001002CEF2000251604EF62351CEF2000173
:100F8000F0230B700721906011607047B0B590F8A6
:100F90003C20012A04BF0220B0BD01F108053CCD70
:100FA000D1E900CE23F47C5322F470521A432EF47C
:100FB000F0431A432CF4E0431A4324F4C0431A4389
:100FC0002A43C96922F4804203681143596400210D
:100FD00080F83C100846B0BD10B590F83C20012ABE
:100FE0004FF0020233D080F83D200268D2F804E0CE
:100FF000D2F808C00C682EF07003234340F2FF744F
:10100000C4F20004A24253600ADCB2F1804F13D054
:1010100040F20043C4F200039A420DD011E000BF39
:1010200042F60043C4F201039A4205D040F60003A1
:10103000C4F200039A4204D149682CF0800319439A
:1010400091600121002280F83D1080F83C2010467C
:1010500010BD000080B586B0014640F60000C4F225
:101060000100096800F5105300229942049201D052
:1010700006B080BD41F21801C4F202010A6842F0D4
:1010800004020A60096801F00401019101994FF41A
:101090007061029102210391059102A9FFF7BAFA4A
:1010A00006B080BD2DE9F04390F83C30012B04BF21
:1010B0000220BDE8F0834FEAB202032A3CD8DFE801
:1010C00002F0034381BD00BF036842F600461D6A7B
:1010D0001A6AC4F2010622F001021A621A465C681A
:1010E00052F818CFB3428E68D1F800E025F002051F
:1010F00045EA06050CD1CE68D1E9057824F44074A0
:1011000025F00C0526F004063C43354344EA080468
:101110002CF0730747EA0E075C609F614F6809690E
:101120005F631D629F6947F008079F619F6927F011
:1011300004079F61B2E000BF0121002280F83C203B
:101140000846BDE8F08300BF036842F600461D6A0A
:101150001A6AC4F2010622F010021A621A46D3F883
:1011600004C052F8184FB3428E68D1F800E025F061
:10117000200545EA061510D1CE68D1E9058725F08E
:10118000C0096FF0400505EA06152CF4406647EAF1
:10119000080745EA090546EA870C24F4E64444EAD0
:1011A0000E27C3F804C09F614F6809699F631D62E1
:1011B0009F6947F400679F619F6927F480679F617B
:1011C0006BE000BF036842F600461D6A1A6AC4F26B
:1011D000010622F480721A621A46D3F804C052F84B
:1011E0001CEFB3428E680C6825F4007545EA0625AD
:1011F00011D1CE68D1E9058725F44069360240F265
:10120000FF4526EA05052CF4405647EA080745EA5B
:10121000090546EA071C2EF073072743C3F804C0EC
:10122000DF614F680969DF631D62DF6947F0080706
:10123000DF61DF6927F00407DF612FE0036842F612
:101240000047D3F820C01A6AC4F2010722F4805282
:101250001A621A465C6852F81C5FD1F800E08E688A
:10126000BB4204D14F6924F4804444EA87142CF42F
:10127000005747EA063725F4E64646EA0E265C6044
:10128000DE614E6809691E641F62DF6947F400670A
:10129000DF61DF6927F48067DF61090213681943A2
:1012A00011600021002280F83C200846BDE8F08350
:1012B000002804BF0120704710B5044690F83D0097
:1012C00028B9002084F83C00204600F067F802208E
:1012D00084F83D00206840F2FF730268C4F2000306
:1012E00042F6004C9842C4F2010C15DCB0F1804F7C
:1012F0001AD040F20041C4F20001884214D0984252
:1013000018DCB0F1804F1DD040F20041C4F2000162
:10131000884217D01AE000BF604505D040F60001B2
:10132000C4F200018842EAD1A16822F070020A43A7
:101330009842E6DD604505D040F60001C4F20001A8
:10134000884203D1216922F440720A43A36922F042
:101350008001D4F804E0E268194360450160C2628C
:10136000C0F828E002D16169CCF830100121416158
:10137000002084F8461084F83E1084F83F1084F86A
:10138000401084F8411084F8421084F8431084F827
:10139000441084F8451084F83D1010BD81B00068F9
:1013A00042F60041C4F20101884201D001B0704709
:1013B00041F21800C4F20200016841F400610160CA
:1013C000006800F400600090009801B070470000D1
:1013D00041B1082910D0042914BF00F1410200F1E5
:1013E0003F020BE090F83E20012A1CBF012070470D
:1013F000022280F83E2013E000F140021278012A18
:101400001CBF012070470222082907D0042914BFFD
:1014100080F8412080F83F2002E000BF80F84020A3
:10142000006801F01F010122036A8A4023EA0201D9
:101430000162036A42F64441C4F201011A43A1F178
:101440004403984202620FD040F2FF71C4F20001DF
:10145000884213DCB0F1804F1CD040F20041C4F24E
:101460000001884216D01CE00A6842F400420A607B
:1014700040F2FF71C4F200018842EBDD42F6004108
:10148000C4F20101884205D040F60001C4F2000117
:10149000884206D1816801F00701062904BF0020B7
:1014A0007047016841F001010160002070470000B1
:1014B000002804BF0120704710B5044690F8410091
:1014C00028B9002084F84000204600F063F824206A
:1014D00084F841002068D4E90212C36823F4005361
:1014E000C360036923F440531A430261D4E904231F
:1014F0001143C268194341F20C639A431143C1601E
:101500004169A26921F44071114343F60002C4F21B
:1015100001029042416103D0FFF720FB02E000BFCF
:10152000FFF730FB6268192148439100B0FBF1F0EE
:1015300048F21F51C5F2EB11A0FB01235A094FF6E7
:101540009C73C0F6FF7302FB0300322303EB001011
:10155000A0FB0101F02303EA5113206803EB021200
:10156000C1F3431111448160016921F4904101618B
:10157000416921F02A014161C16841F40051C16013
:1015800000202021606484F8411084F842106063D8
:1015900010BD000070B586B040F60044C4F20104EE
:1015A0000068A4F5444100268842049602D006B0A3
:1015B00070BD00BF41F21800C4F20200416802ADE4
:1015C00041F480214160416801F480210191019939
:1015D000016841F0080101600068294600F0080038
:1015E000019001984FF48060029002200390032044
:1015F00005902046FFF70EF84FF40060CDE9020693
:10160000204629460496FFF705F806B070BD000095
:1016100090F84230202B1CBF0220704700294FF069
:10162000010318BF002A01D1184670470023036345
:10163000816222218285C285436480F8421001695B
:10164000006819B1C16841F48071C160416900232B
:1016500041F001014161C16841F02001C1601846BB
:1016600070470000FEE70000FEE70000FEE7000014
:101670007047000070470000FFF7ECB870470000AB
:10168000FEE7000096B0FFF7F3F800240120CDE953
:101690000844CDE906440790102008904FF46010EC
:1016A00002250C9003A8CDE904440395CDE90A5422
:1016B000FFF77CFA20B1EFF3108072B6FEE700BFAF
:1016C0000F20CDE90D054FF48060CDE910040DA881
:1016D00002210F94FFF762F920B1EFF3108072B688
:1016E000FEE700BF41F21800C4F20200016840F6B4
:1016F000004A41F0040101600168C4F2010A01F0EE
:101700000401039103990168AAF5806941F0080179
:1017100001600068502100F00800039003984846DB
:10172000002250240025FFF789F850462821002286
:101730004FF02808FFF782F8039403AC0127022634
:1017400048462146CDE904750696FEF763FF8020E2
:10175000CDE90305484621460595FEF75BFF40F2BB
:10176000C310CDE90305504621460595FEF752FF0B
:1017700050462146CDE90387CDE90556FEF74AFFDD
:1017800040F20C100AF50051C2F2000040F2E733BB
:10179000CDE9145509953F2280E82600C0E90335BC
:1017A000C0E90555FFF784FD20B1EFF3108072B654
:1017B000FEE700BF40F20C10C2F2000014A9FFF7D0
:1017C0000BFC28B1EFF3108072B600BFFEE700BF3C
:1017D00060200D900020CDE90E00CDE91000CDE98C
:1017E000120040F20C10C2F200000DA90022FFF717
:1017F00059FC28B1EFF3108072B600BFFEE700BFBE
:1018000040F20C10C2F200000DA90422FFF74AFCBE
:1018100020B1EFF3108072B6FEE700BF40F20C106B
:10182000C2F200000DA90822FFF73CFC20B1EFF343
:10183000108072B6FEE700BF40F20C10C2F200004A
:101840000DA90C22FFF72EFC20B1EFF3108072B629
:10185000FEE700BF4FF40050089040F20C10002447
:10186000C2F2000003A90794CDE90544CDE9034481
:101870000A94FFF78BFB28B1EFF3108072B600BF1C
:10188000FEE700BF40F20C10C2F20000CDF8049059
:10189000FFF7E0FB40F27005C2F20005AAF54441F3
:1018A000284640F8041F4FF4E1310C22C0E901142E
:1018B000C0E90344C0E90524C461FFF7F9FD28B17C
:1018C000EFF3108072B600BFFEE700BFFEF7BCFF6B
:1018D000064640F20C10C2F20000FEF7B5FC281DCF
:1018E000691C0122FFF794FE40F6004742F211798D
:1018F000C4F2010704E000BF02201921FEF7F4FC46
:1019000038464FF48071FEF793FF0446019880211A
:10191000FEF78EFF804638460121FEF789FF834699
:1019200038468021FEF784FF054638464021FEF701
:101930007FFF029038460221FEF77AFF824600BF01
:10194000FEF782FF801B4845FAD340F27001C2F2D5
:101950000001087848BB55EA0B0005D154EA08009D
:101960001CD1022012E000BF012C08BFB8F1010F0A
:101970000BD0002C08BFB8F1010F00F09F80012CA4
:1019800008BFB8F1000F00F0B78000201921FEF762
:10199000ABFC40F27001C2F2000105E0002C08BF70
:1019A000B8F1010F00F08C800878012822D158EAA4
:1019B0000B0005D154EA050018D102201E210EE0CB
:1019C000012C08BF012D08D0002C08BF012D61D0CB
:1019D000012C08BF002D00F08B8005201921FEF797
:1019E00083FC40F27001C2F2000103E0012C08BF49
:1019F000002D51D00878029C022825D155EA0B0011
:101A000004D154EA0A0019D102200FE0012C08BFCA
:101A1000BAF1010F09D0002C08BFBAF1010F47D06D
:101A2000012C08BFBAF1000F64D001201921FEF784
:101A30005BFC40F27001C2F2000104E0012C08BF1F
:101A4000BAF1000F36D0087803287FF459AF55EA71
:101A5000040005D15BEA0A007FF452AF4CE700BFF7
:101A6000BBF1010F08BFBAF1010F0FD0BBF1000F9E
:101A700008BFBAF1010F0BD08BF0010050EA0A0049
:101A80004FF0060008BF082037E700BF062034E704
:101A9000042032E70320A1E7022008700120192169
:101AA000FEF722FC40F2A910FEF7A0FD99E700BF67
:101AB0000820BBE702201E21B9E700BF042065E72C
:101AC00002201921FEF710FC40F6B830FEF78EFD1B
:101AD00040F27000C2F200000121017005201921BE
:101AE000FEF702FC40F2A910FEF780FD51E700BFAF
:101AF000072073E7072099E7032047E7000000006D
:101B000000000000010203040607080900000000AD
:101B100001020304010202030405060708090A0B77
:101B20000C0D0E0F10100000481B000800000020D4
:101B30001000000028010008581B000810000020B9
:101B400048070000440100080100000010000000E8
:081B50000024F4000000000075
:04000005080000ED02
:00000001FF
